{
  "contractName": "AccountFund",
  "abi": [
    {
      "inputs": [],
      "name": "balanceReceived",
      "outputs": [
        {
          "internalType": "uint256",
          "name": "",
          "type": "uint256"
        }
      ],
      "stateMutability": "view",
      "type": "function",
      "constant": true
    },
    {
      "inputs": [],
      "name": "receiveMoney",
      "outputs": [],
      "stateMutability": "payable",
      "type": "function",
      "payable": true
    },
    {
      "inputs": [],
      "name": "getBalance",
      "outputs": [
        {
          "internalType": "uint256",
          "name": "",
          "type": "uint256"
        }
      ],
      "stateMutability": "view",
      "type": "function",
      "constant": true
    }
  ],
  "bytecode": "0x608060405234801561001057600080fd5b506101b0806100206000396000f3fe6080604052600436106100345760003560e01c806312065fe01461003957806352a90c42146100645780636d26ec181461008f575b600080fd5b34801561004557600080fd5b5061004e610099565b60405161005b91906100da565b60405180910390f35b34801561007057600080fd5b506100796100a1565b60405161008691906100da565b60405180910390f35b6100976100a7565b005b600047905090565b60005481565b346000808282546100b89190610124565b92505081905550565b6000819050919050565b6100d4816100c1565b82525050565b60006020820190506100ef60008301846100cb565b92915050565b7f4e487b7100000000000000000000000000000000000000000000000000000000600052601160045260246000fd5b600061012f826100c1565b915061013a836100c1565b9250827fffffffffffffffffffffffffffffffffffffffffffffffffffffffffffffffff0382111561016f5761016e6100f5565b5b82820190509291505056fea264697066735822122073f52f5420e6c043f557e21adde1ea913512e7c60563247ee466c021e6aa8a1364736f6c634300080a0033",
  "immutableReferences": {},
  "source": "// SPDX-License-Identifier: MIT\npragma solidity >=0.4.22 <0.9.0;\n\n// Contract name\ncontract AccountFund {\n\n// Will store the amount of ETH we received\n    uint public balanceReceived;\n\n// Function that will store in the variable the amount sent to our smart contract from the transaction\n    function receiveMoney() public payable {\n        balanceReceived += msg.value;\n    }\n\n// Function that will give us the amount received from the last transation with our smart contract\n    function getBalance() public view returns(uint) {\n        return address(this).balance;\n    }\n\n}",
  "sourcePath": "/Users/thierry/Documents/VS Code/solidity-smart-contract/contracts/AccountFund.sol",
  "compiler": {
    "name": "solc",
    "version": "0.8.10+commit.fc410830.Emscripten.clang"
  },
  "schemaVersion": "3.4.3",
  "updatedAt": "2021-12-22T06:45:17.564Z",
  "networkType": "ethereum",
  "devdoc": {
    "kind": "dev",
    "methods": {},
    "version": 1
  },
  "userdoc": {
    "kind": "user",
    "methods": {},
    "version": 1
  }
}