{
  "contractName": "TransferFund",
  "abi": [
    {
      "inputs": [],
      "stateMutability": "nonpayable",
      "type": "constructor"
    },
    {
      "inputs": [],
      "name": "owner",
      "outputs": [
        {
          "internalType": "address",
          "name": "",
          "type": "address"
        }
      ],
      "stateMutability": "view",
      "type": "function",
      "constant": true
    },
    {
      "inputs": [],
      "name": "status",
      "outputs": [
        {
          "internalType": "bool",
          "name": "",
          "type": "bool"
        }
      ],
      "stateMutability": "view",
      "type": "function",
      "constant": true
    },
    {
      "inputs": [],
      "name": "ownerAddress",
      "outputs": [
        {
          "internalType": "address",
          "name": "",
          "type": "address"
        }
      ],
      "stateMutability": "view",
      "type": "function",
      "constant": true
    },
    {
      "inputs": [],
      "name": "getBalance",
      "outputs": [
        {
          "internalType": "uint256",
          "name": "",
          "type": "uint256"
        }
      ],
      "stateMutability": "view",
      "type": "function",
      "constant": true
    },
    {
      "inputs": [],
      "name": "sendMoney",
      "outputs": [],
      "stateMutability": "payable",
      "type": "function",
      "payable": true
    },
    {
      "inputs": [
        {
          "internalType": "address payable",
          "name": "_toAddress",
          "type": "address"
        }
      ],
      "name": "withdrawAllFund",
      "outputs": [],
      "stateMutability": "nonpayable",
      "type": "function"
    },
    {
      "inputs": [],
      "name": "getStatut",
      "outputs": [
        {
          "internalType": "bool",
          "name": "",
          "type": "bool"
        }
      ],
      "stateMutability": "view",
      "type": "function",
      "constant": true
    },
    {
      "inputs": [
        {
          "internalType": "bool",
          "name": "setStatus",
          "type": "bool"
        }
      ],
      "name": "setPaused",
      "outputs": [],
      "stateMutability": "nonpayable",
      "type": "function"
    }
  ],
  "bytecode": "0x608060405234801561001057600080fd5b50336000806101000a81548173ffffffffffffffffffffffffffffffffffffffff021916908373ffffffffffffffffffffffffffffffffffffffff16021790555061068a806100606000396000f3fe60806040526004361061007b5760003560e01c80638da5cb5b1161004e5780638da5cb5b146101285780638f84aa0914610153578063ca79b0941461017e578063cbedbf5a146101a95761007b565b806312065fe01461008057806316c38b3c146100ab578063200d2ed2146100d457806384102060146100ff575b600080fd5b34801561008c57600080fd5b506100956101b3565b6040516100a291906103cf565b60405180910390f35b3480156100b757600080fd5b506100d260048036038101906100cd9190610427565b6101bb565b005b3480156100e057600080fd5b506100e9610266565b6040516100f69190610463565b60405180910390f35b34801561010b57600080fd5b50610126600480360381019061012191906104dc565b610279565b005b34801561013457600080fd5b5061013d610351565b60405161014a919061052a565b60405180910390f35b34801561015f57600080fd5b50610168610375565b604051610175919061052a565b60405180910390f35b34801561018a57600080fd5b5061019361039e565b6040516101a09190610463565b60405180910390f35b6101b16103b4565b005b600047905090565b3373ffffffffffffffffffffffffffffffffffffffff1660008054906101000a900473ffffffffffffffffffffffffffffffffffffffff1673ffffffffffffffffffffffffffffffffffffffff1614610249576040517f08c379a0000000000000000000000000000000000000000000000000000000008152600401610240906105c8565b60405180910390fd5b80600060146101000a81548160ff02191690831515021790555050565b600060149054906101000a900460ff1681565b3373ffffffffffffffffffffffffffffffffffffffff1660008054906101000a900473ffffffffffffffffffffffffffffffffffffffff1673ffffffffffffffffffffffffffffffffffffffff1614610307576040517f08c379a00000000000000000000000000000000000000000000000000000000081526004016102fe90610634565b60405180910390fd5b8073ffffffffffffffffffffffffffffffffffffffff166108fc479081150290604051600060405180830381858888f1935050505015801561034d573d6000803e3d6000fd5b5050565b60008054906101000a900473ffffffffffffffffffffffffffffffffffffffff1681565b60008060009054906101000a900473ffffffffffffffffffffffffffffffffffffffff16905090565b60008060149054906101000a900460ff16905090565b565b6000819050919050565b6103c9816103b6565b82525050565b60006020820190506103e460008301846103c0565b92915050565b600080fd5b60008115159050919050565b610404816103ef565b811461040f57600080fd5b50565b600081359050610421816103fb565b92915050565b60006020828403121561043d5761043c6103ea565b5b600061044b84828501610412565b91505092915050565b61045d816103ef565b82525050565b60006020820190506104786000830184610454565b92915050565b600073ffffffffffffffffffffffffffffffffffffffff82169050919050565b60006104a98261047e565b9050919050565b6104b98161049e565b81146104c457600080fd5b50565b6000813590506104d6816104b0565b92915050565b6000602082840312156104f2576104f16103ea565b5b6000610500848285016104c7565b91505092915050565b60006105148261047e565b9050919050565b61052481610509565b82525050565b600060208201905061053f600083018461051b565b92915050565b600082825260208201905092915050565b7f4f6e6c7920746865206f776e65722063616e206368616e67652074686520737460008201527f617475732e000000000000000000000000000000000000000000000000000000602082015250565b60006105b2602583610545565b91506105bd82610556565b604082019050919050565b600060208201905081810360008301526105e1816105a5565b9050919050565b7f4f6e6c7920746865206f776e65722063616e2077697468647261772e00000000600082015250565b600061061e601c83610545565b9150610629826105e8565b602082019050919050565b6000602082019050818103600083015261064d81610611565b905091905056fea26469706673582212206d60cadca68d0e7b6b1ecec80f5c5ef0f97bf0650c594a025d8c3c5d4e1aabb364736f6c634300080a0033",
  "immutableReferences": {},
  "source": "// SPDX-License-Identifier: MIT\npragma solidity >=0.4.22 <0.9.0;\n\ncontract TransferFund{\n// Variable which will store the owner address\n    address public owner;\n    bool public status;\n\n// Function that will be called during the smart contract deployment\nconstructor() {\n    owner = msg.sender;\n}\n\n// This function will display the address of the smart contract owner\nfunction ownerAddress() public view returns (address)\n{ return owner;\n}\n\n// This function will display the funds withing the smart contract\nfunction getBalance() public view returns (uint)\n{\n    return address(this).balance;\n}\n\n// This function can receive Ether, it's a payable function.    \n// instance.sendMoney({value: web3.utils.toWei(\"1\",\"ether\")})\nfunction sendMoney() public payable {}\n\n// This function will automatically withdraw all available funds stored at the address of the Smart Contract to the variable in the as function argument given address.\nfunction withdrawAllFund (address payable _toAddress) public \n{\n    require(owner == msg.sender, \"Only the owner can withdraw.\");\n    _toAddress.transfer(address(this).balance);\n}\n\nfunction getStatut() public view returns (bool) {\n    return status;\n}\n\nfunction setPaused(bool setStatus) public {\n    require(owner == msg.sender, \"Only the owner can change the status.\");\n    status = setStatus;\n}\n\n}",
  "sourcePath": "/Users/thierry/Documents/VS Code/solidity-smart-contract/contracts/TransferFund.sol",
  "compiler": {
    "name": "solc",
    "version": "0.8.10+commit.fc410830.Emscripten.clang"
  },
  "schemaVersion": "3.4.3",
  "updatedAt": "2021-12-22T07:44:17.984Z",
  "networkType": "ethereum",
  "devdoc": {
    "kind": "dev",
    "methods": {},
    "version": 1
  },
  "userdoc": {
    "kind": "user",
    "methods": {},
    "version": 1
  }
}